:0400000017EF21F0E5
:101000000042746E2031204F4E20202020202020CE
:10101000200042746E2032204F4E202020202020BD
:1010200020200042746E20312065742032204F460B
:101030004620200055203D25322E316620202000FC
:10104000494E46004E414E00696E66006E616E006C
:101050006C660000000E00017A6F000E796F57C0B9
:101060008BF058C08CF059C08DF05AC08EF08EBFF6
:101070003EEF08F03CEF08F054EF08F0000E7A6FF6
:10108000010E796F8BC001F08CC002F08DC003F0AF
:101090008EC004F0DFEC20F001C08BF002C08CF0B9
:1010A00003C08DF004C08EF0000E0001926F000EA0
:1010B000916FEDC07DF0EEC07EF079517A11D8A429
:1010C00064EF08F066EF08F06DEF08F0F1A56BEF44
:1010D00008F06DEF08F087EF08F079517A11D8A485
:1010E00074EF08F076EF08F07CEF08F0000E666F02
:1010F0002B0E656F80EF08F0000E666F2D0E656F8A
:1011000065C000F1914B922B7D07D8A07E078BC064
:1011100001F08CC002F08DC003F08EC004F042ECF0
:101120001BF001040210D8A498EF08F09AEF08F021
:10113000E4EF08F0BF0E0001606FFF0E616F5B50BF
:10114000626F636B6051622761516323635107E1F2
:101150001A0E625DD8B0AFEF08F0B1EF08F0BFEF44
:1011600008F0000E9125016E010E9221026E400ED4
:10117000036E100E046EDAEC1FF0CBEF08F0000ED9
:101180009125016E010E9221026E480E036E100E23
:10119000046EDAEC1FF00001FD0E7D27FF0E7E23AA
:1011A00055C011F056C012F0000E136E010E146EF1
:1011B0007DC015F07EC016F097EC1CF011C055F004
:1011C00012C056F02EEF0EF08BC001F08CC002F072
:1011D0008DC003F08EC004F042EC1BF001500210F1
:1011E000D8A4F5EF08F0F7EF08F02AEF09F0BF0EEA
:1011F0000001606FFF0E616F5B50626F636B605147
:10120000622761516323635107E11A0E625DD8B012
:101210000CEF09F00EEF09F01CEF09F0000E91251C
:10122000016E010E9221026E440E036E100E046ECA
:10123000DAEC1FF0CBEF08F0000E9125016E010EE5
:101240009221026E4C0E036E100E046EDAEC1FF04B
:10125000CBEF08F0000E0001936F000E946F800E2C
:10126000956F3F0E966F000E906F000E8F6F8BC0C4
:1012700001F08CC002F08DC003F08EC004F0000EAF
:10128000056E000E066E000E076E000E086EB4ECC2
:101290001DF0D8B04EEF09F050EF09F0D3EF09F090
:1012A0006FEF09F093C00FF094C010F095C011F0EB
:1012B00096C012F0000E136E000E146E200E156E06
:1012C000410E166E38EC13F00FC093F010C094F07E
:1012D00011C095F012C096F000018F4B902B8BC07F
:1012E00028F08CC029F08DC02AF08EC02BF0000EA3
:1012F000136E000E146E200E156E410E166E93C006
:101300000FF094C010F095C011F096C012F038ECB8
:1013100013F00FC02CF010C02DF011C02EF012C031
:101320002FF0C0EC1AF0D8B098EF09F09AEF09F05E
:1013300052EF09F0BAEF09F093C028F094C029F0F9
:1013400095C02AF096C02BF0000E2C6E000E2D6E6C
:10135000200E2E6E410E2F6E4DEC15F028C093F02E
:1013600029C094F02AC095F02BC096F000018F0799
:10137000D8A090078BC028F08CC029F08DC02AF02F
:101380008EC02BF093C02CF094C02DF095C02EF0A1
:1013900096C02FF0C0EC1AF0D8A0D1EF09F0D3EF2F
:1013A00009F09CEF09F05BC007F0086A5BEC20F0E5
:1013B00007500001806F80C07FF0670E8019D8A4AD
:1013C000E4EF09F0E6EF09F00CEF0AF0EF51F0114D
:1013D000D8A4EDEF09F0EFEF09F0F3EF09F0000EFC
:1013E000F06F010EEF6FF0BF00EF0AF0F05106E171
:1013F000EF05D8B0FEEF09F000EF0AF006EF0AF0B3
:10140000000E7C6F060E7B6F15EF0AF0EFC07BF0CD
:10141000F0C07CF015EF0AF0F0BF11EF0AF013EF07
:101420000AF000EF0AF006EF0AF0670E8019D8A460
:101430001CEF0AF01EEF0AF04DEF0AF090AF2CEF10
:101440000AF0FC0E8F5DFF0E9059D8A02AEF0AF02B
:101450002CEF0AF04BEF0AF0FF0E606FFF0E616F8A
:101460007BC062F07CC063F06051622761516323EE
:101470008F51625D6351800A646F9051800A645994
:10148000D8A045EF0AF047EF0AF04BEF0AF0660EDE
:101490007F6F4DEF0AF0650E7F6F7BC071F07CC0EF
:1014A00072F0670E8019D8A458EF0AF05AEF0AF0CC
:1014B0006AEF0AF0660E7F19D8A461EF0AF063EFB5
:1014C0000AF06CEF0AF090BF6AEF0AF068EF0AF0DA
:1014D0006CEF0AF0714B722B660E7F19D8A473EF74
:1014E0000AF075EF0AF095EF0AF090BF7CEF0AF072
:1014F0007AEF0AF088EF0AF0000E936F000E946FF7
:10150000800E956F3F0E966F000E906F000E8F6FDE
:10151000670E8019D8B48FEF0AF091EF0AF095EFBB
:101520000AF08F51712790517223000E8A6F000EBE
:10153000896F8BC081F08CC082F08DC083F08EC02B
:1015400084F093C073F094C074F095C075F096C0A9
:1015500076F026EF0BF081C028F082C029F083C01E
:101560002AF084C02BF093C02CF094C02DF095C0CD
:101570002EF096C02FF04DEC15F028C041F029C098
:1015800042F02AC043F02BC044F01AEC17F041C0DF
:1015900085F042C086F043C087F044C088F085C023
:1015A00001F086C002F087C003F088C004F03DEC73
:1015B0001AF001C077F002C078F081C028F082C034
:1015C00029F083C02AF084C02BF093C013F094C09C
:1015D00014F095C015F096C016F085C00FF086C0C7
:1015E00010F087C011F088C012F038EC13F00FC073
:1015F0002CF010C02DF011C02EF012C02FF07EEC98
:1016000020F028C081F029C082F02AC083F02BC0CE
:1016100084F093C028F094C029F095C02AF096C0B9
:101620002BF0000E2C6E000E2D6E200E2E6E410E35
:101630002F6E4DEC15F028C093F029C094F02AC00D
:1016400095F02BC096F00001894B8A2B7151895D72
:101650008A51800A606F7251800A6059D8A033EFB6
:101660000BF035EF0BF0ABEF0AF093C00FF094C026
:1016700010F095C011F096C012F0000E136E000E1F
:10168000146EA00E156E400E166E38EC13F00FC0DF
:1016900085F010C086F011C087F012C088F081C0BC
:1016A00028F082C029F083C02AF084C02BF085C0C6
:1016B0002CF086C02DF087C02EF088C02FF0C0EC33
:1016C0001AF0D8B066EF0BF068EF0BF073EF0BF089
:1016D000000E0001856F000E866F000E876F000EF2
:1016E000886F9CEF0BF081C001F082C002F083C0D4
:1016F00003F084C004F085C005F086C006F087C002
:1017000007F088C008F0B4EC1DF0D8A08AEF0BF009
:101710008CEF0BF09CEF0BF0000177B192EF0BF028
:1017200094EF0BF09CEF0BF0000E856F000E866FB0
:10173000000E876F000E886F8BC001F08CC002F026
:101740008DC003F08EC004F085C005F086C006F0A1
:1017500087C007F088C008F0D8EC10F001C081F015
:1017600002C082F003C083F004C084F081C028F07E
:1017700082C029F083C02AF084C02BF0000E136EC3
:10178000000E146E200E156E410E166E73C00FF013
:1017900074C010F075C011F076C012F038EC13F080
:1017A0000FC02CF010C02DF011C02EF012C02FF081
:1017B000C0EC1AF0D8A0DFEF0BF0E1EF0BF00AEF6E
:1017C0000CF000018F4B902B73C00FF074C010F021
:1017D00075C011F076C012F0000E136E000E146E7C
:1017E000200E156E410E166E38EC13F00FC073F01C
:1017F00010C074F011C075F012C076F0660E0001D2
:101800007F19D8A406EF0CF008EF0CF00AEF0CF0EB
:10181000714B722B73C093F074C094F075C095F047
:1018200076C096F0650E00017F19D8B41AEF0CF05F
:101830001CEF0CF022EF0CF08FC06FF090C070F036
:1018400026EF0CF0000E706F000E6F6F000E6E6FC3
:10185000000E6D6F000E6C6F000E6B6F000E8A6FC6
:10186000000E896F21EF0DF081C028F082C029F0B1
:1018700083C02AF084C02BF093C02CF094C02DF0CC
:1018800095C02EF096C02FF04DEC15F028C041F019
:1018900029C042F02AC043F02BC044F01AEC17F0E4
:1018A00041C085F042C086F043C087F044C088F054
:1018B00085C001F086C002F087C003F088C004F044
:1018C0003DEC1AF001C077F002C078F00001F1B9E8
:1018D0006CEF0CF06EEF0CF08BEF0CF07751781191
:1018E000D8A475EF0CF077EF0CF08BEF0CF0670ECF
:1018F0008019D8A47EEF0CF080EF0CF08BEF0CF089
:1019000070BF87EF0CF085EF0CF08BEF0CF06B4B9A
:101910006C2BD5EF0CF06D516E11D8A492EF0CF03A
:1019200094EF0CF0BEEF0CF070BF9BEF0CF099EF52
:101930000CF0BEEF0CF0000E9125D96E010E922135
:10194000DA6E2E0EDF6E914B922B7D07D8A07E07AC
:10195000000E6E6F010E6D6FBEEF0CF0000E912544
:10196000D96E010E9221DA6E300EDF6E914B922B02
:101970007D07D8A07E076B07D8A06C076B516C1150
:10198000D8A4C5EF0CF0C7EF0CF0AEEF0CF0000ED2
:101990009125D96E010E9221DA6E7751300FDF6EEC
:1019A000914B922B7D07D8A07E0781C028F082C082
:1019B00029F083C02AF084C02BF093C013F094C0A8
:1019C00014F095C015F096C016F085C00FF086C0D3
:1019D00010F087C011F088C012F038EC13F00FC07F
:1019E0002CF010C02DF011C02EF012C02FF07EECA4
:1019F00020F028C081F029C082F02AC083F02BC0DB
:101A000084F093C028F094C029F095C02AF096C0C5
:101A10002BF0000E2C6E000E2D6E200E2E6E410E41
:101A20002F6E4DEC15F028C093F029C094F02AC019
:101A300095F02BC096F000016F07D8A07007894B76
:101A40008A2B7151895D8A51800A606F7251800AB8
:101A50006059D8B02EEF0DF030EF0DF03EEF0DF0E5
:101A600092BF3CEF0DF0925109E14B0E915DD8A071
:101A70003CEF0DF03EEF0DF034EF0CF06D516E11B8
:101A8000D8A445EF0DF047EF0DF058EF0DF0F1A998
:101A90004CEF0DF04EEF0DF058EF0DF0000E9125CC
:101AA000D96E010E9221DA6E2E0EDF6E914B922BC3
:101AB000000E9125D96E010E9221DA6E000EDF6EB6
:101AC000650E7F19D8A467EF0DF069EF0DF0D0EF28
:101AD00008F0000E8A6F4F0E896F000E8925D96EAF
:101AE000010E8A21DA6E000EDF6E000E7A6F000E94
:101AF000796F90BF80EF0DF07EEF0DF088EF0DF065
:101B0000000E7A6F010E796F8F6D901FD8B0902BF9
:101B1000000E7C6F020E7B6FB9EF0DF08907D8A025
:101B20008A07000E8925D96E010E8A21DA6E8FC0D0
:101B300001F090C002F0000E046E0A0E036E5CEC21
:101B40001DF00150300FDF6E8FC001F090C002F029
:101B5000000E046E0A0E036EFAEC1CF001C08FF04A
:101B600002C090F000017B07D8A07C077D07D8A0B9
:101B70007E078F519011D8A4C0EF0DF0C2EF0DF089
:101B80008EEF0DF07CBFCFEF0DF07C5106E17B05B1
:101B9000D8B0CDEF0DF0CFEF0DF08EEF0DF089073F
:101BA000D8A08A0779517A11D8A4D9EF0DF0DBEFCC
:101BB0000DF0E1EF0DF0000E686F2B0E676FE5EF93
:101BC0000DF0000E686F2D0E676F000E8925D96E1F
:101BD000010E8A21DA6E67C0DFFF7D07D8A07E077D
:101BE0008907D8A08A07BF0E606FFF0E616F5B5038
:101BF000626F636B6051622761516323635109E136
:101C00001A0E625DD8A007EF0EF009EF0EF00FEF8D
:101C10000EF0000E6A6F650E696F13EF0EF0000E86
:101C20006A6F450E696F000E8925D96E010E8A21F3
:101C3000DA6E69C0DFFF7D07D8A07E07000E912510
:101C4000016E010E9221026E000E8925036E010EB7
:101C50008A21046EDAEC1FF0D0EF08F0120099C070
:101C6000D9FF9AC0DAFFDECFF6FFDDCFF7FF000E17
:101C7000F86E0800F550250AD8A441EF0EF043EFA6
:101C80000EF0BAEF10F099C0D9FF9AC0DAFFDE2A41
:101C9000000EDD22000E0001EE6F000EED6FEDC0B4
:101CA000F1F0EEC0F2F0EF69F06999C0D9FF9AC087
:101CB000DAFFDECFF6FFDDCFF7FF000EF86E08008B
:101CC000F5502A0AD8A467EF0EF069EF0EF092EFF4
:101CD0000EF099C0D9FF9AC0DAFFDE2A000EDD228D
:101CE0009BC0D9FF9CC0DAFFDFCF5CF0020EDE267E
:101CF000DFCF5DF0000EDD225CC0D9FF5DC0DAFFF2
:101D0000DECFEDF0DDCFEEF0EEBF8BEF0EF089EF22
:101D10000EF0CAEF0EF0F181ED6DEE1FD8B0EE2B94
:101D2000CAEF0EF099C0D9FF9AC0DAFFDECF08F0F3
:101D3000DDCF09F0FDEC18F008C0EDF009C0EEF0C1
:101D4000A9EF0EF099C0D9FF9AC0DAFFDE2A000E83
:101D5000DD22D00E5C6EFF0E5D6E99C0D9FF9AC079
:101D6000DAFFDECFF6FFDDCFF7FF000EF86E0800DA
:101D7000F5505E6E5F6A5C505E265D505F225F507C
:101D800009E10A0E5E5CD8A0C8EF0EF0CAEF0EF0B3
:101D9000A2EF0EF099C0D9FF9AC0DAFFDECFF6FFAE
:101DA000DDCFF7FF000EF86E0800F5502E0AD8A41C
:101DB000DCEF0EF0DEEF0EF053EF0FF0000E00013F
:101DC000F06F000EEF6F99C0D9FF9AC0DAFFDE2ADC
:101DD000000EDD2299C0D9FF9AC0DAFFDECFF6FFF0
:101DE000DDCFF7FF000EF86E0800F5502A0AD8A4E0
:101DF000FCEF0EF0FEEF0EF01BEF0FF099C0D9FFD5
:101E00009AC0DAFFDE2A000EDD229BC0D9FF9CC0FB
:101E1000DAFFDFCF5CF0020EDE26DFCF5DF0000ED2
:101E2000DD225CC0D9FF5DC0DAFFDECFEFF0DDCF91
:101E3000F0F053EF0FF099C0D9FF9AC0DAFFDECF70
:101E400008F0DDCF09F0FDEC18F008C0EFF009C094
:101E5000F0F032EF0FF099C0D9FF9AC0DAFFDE2A16
:101E6000000EDD22D00E5C6EFF0E5D6E99C0D9FFB4
:101E70009AC0DAFFDECFF6FFDDCFF7FF000EF86E77
:101E80000800F5505E6E5F6A5C505E265D505F2212
:101E90005F5009E10A0E5E5CD8A051EF0FF053EFDE
:101EA0000FF02BEF0FF099C0D9FF9AC0DAFFDECF09
:101EB000F6FFDDCFF7FF000EF86E0800F550076E55
:101EC000086A5BEC20F007500001A16FA151D8B463
:101ED0006CEF0FF06EEF0FF0ACEF0FF099C0D9FF81
:101EE0009AC0DAFFDECF5CF0DDCF5DF0010E5C263C
:101EF000000E5D225CC0F6FF5DC0F7FF000EF86EBD
:101F00000800F550076E086A5BEC20F007500001EE
:101F1000A26FA251D8B48FEF0FF091EF0FF0ACEF9A
:101F20000FF099C0D9FF9AC0DAFFDECF5CF0DDCFA9
:101F30005DF0020E5C26000E5D225CC0F6FF5DC007
:101F4000F7FF000EF86E0800F550076E086A5BECAC
:101F500020F007500001A36F660EA119D8A4B3EFBB
:101F60000FF0B5EF0FF0F7EF0FF099C0D9FF9AC05F
:101F7000DAFFDECFF6FFDDCFF7FF000EF86E0800C8
:101F8000F5CFA4F099C0D9FF9AC0DAFFDE2A000E7F
:101F9000DD229BC0D9FF9CC0DAFFDFCF5CF0040ECE
:101FA000DE26DFCF5DF0000EDD225CC0D9FF5DC014
:101FB000DAFFDECF9DF0DECF9EF0DECF9FF0DECFEA
:101FC000A0F097C055F098C056F09DC057F09EC045
:101FD00058F09FC059F0A0C05AF0A4C05BF02AECA2
:101FE00008F055C097F056C098F0D7EF10F0A10E4A
:101FF000016E000E026E500E036E100E046E000E87
:10200000066E020E056EC1EC1BF001500210D8A442
:102010000CEF10F00EEF10F080EF10F099C0D9FF28
:102020009AC0DAFFDECF5CF0DDCF5DF0010E5C26FA
:10203000000E5D225CC0F6FF5DC0F7FF000EF86E7B
:102040000800F5CFA4F0BF0E5C6EFF0E5D6E99C068
:10205000D9FF9AC0DAFFDECFF6FFDDCFF7FF000E23
:10206000F86E0800F5505E6E5F6A5C505E265D504B
:102070005F225F5007E11A0E5E5CD8B042EF10F0AD
:1020800044EF10F05EEF10F09BC0D9FF9CC0DAFF68
:10209000DFCF5CF0040EDE26DFCF5DF0000EDD2228
:1020A0005CC0D9FF5DC0DAFFDECF9DF0DECF9EF0D1
:1020B000DECF9FF0DECFA0F076EF10F09BC0D9FF0F
:1020C0009CC0DAFFDFCF5CF0040EDE26DFCF5DF0D0
:1020D000000EDD225CC0D9FF5DC0DAFFDECF9DF0CF
:1020E000DECF9EF0DECF9FF0DECFA0F0020E99C0D3
:1020F000D9FF9AC0DAFFDE26000EDD22E1EF0FF0F5
:1021000099C0D9FF9AC0DAFFDECFF6FFDDCFF7FF27
:10211000000EF86E0800F550250AD8A492EF10F0D2
:1021200094EF10F0ACEF10F099C0D9FF9AC0DAFF2D
:10213000DE2A000EDD22000E026E250E016E97C013
:1021400003F098C004F032EC1CF0000E0001986F10
:10215000010E976FD7EF10F099C0D9FF9AC0DAFF40
:10216000DE2A000EDD22000E0001986F000E976F30
:10217000D7EF10F099C0D9FF9AC0DAFFDECFF6FF93
:10218000DDCFF7FF000EF86E0800F550016E026A11
:1021900097C003F098C004F032EC1CF099C0D9FF4E
:1021A0009AC0DAFFDE2A000EDD22A5EF10F0120041
:1021B0000450800B0D6E045004240F6E03AEE3EF49
:1021C00010F0E5EF10F0E6EF10F00F800F50D8B4EC
:1021D000ECEF10F0EEEF10F003EF11F00F28D8A4A1
:1021E000F4EF10F0F6EF10F0FEEF10F0000E016EBD
:1021F000000E026E000E036E000E046E038E000EC3
:10220000046E0BEF11F0000E016E000E026E000E58
:10221000036E000E046E0850800B0E6E0D500E18EB
:10222000D8B415EF11F017EF11F018EF11F00D8C75
:10223000085008240E6E07AE20EF11F022EF11F0C7
:1022400023EF11F00E800E50D8B429EF11F02BEFD0
:1022500011F040EF11F00E28D8A431EF11F033EF58
:1022600011F03BEF11F0000E056E000E066E000E31
:10227000076E000E086E078E000E086E48EF11F014
:10228000000E056E000E066E000E076E000E086E44
:102290000F500E5CD8B04FEF11F051EF11F078EF06
:1022A00011F00DAC56EF11F058EF11F05AEF11F09C
:1022B000800E0D1A0FC010F00EC00FF010C00EF0FF
:1022C00001C010F005C001F010C005F002C010F010
:1022D00006C002F010C006F003C010F007C003F003
:1022E00010C007F004C010F008C004F010C008F0DF
:1022F000000E106E0F500EC009F00A6A095E000E43
:102300000A5A0ABE8DEF11F00A5009E11A0E095C53
:10231000D8A08DEF11F08FEF11F0C6EF11F0015042
:10232000021003100410D8A498EF11F09BEF11F0E5
:10233000010E9CEF11F0000E106E000E016E000EEB
:10234000026E000E036E000E046E0EC00FF0CFEF93
:1023500011F010A0AEEF11F0B0EF11F0B6EF11F0E8
:10236000D89010300109106EB8EF11F0D8901032EB
:1023700001A0BDEF11F0BFEF11F0C0EF11F0108E12
:10238000043404320332023201320F2A0E500F5C41
:10239000D8A0CDEF11F0CFEF11F0A9EF11F00DBCE7
:1023A000D4EF11F0D6EF11F016EF12F00F50D8A4C1
:1023B000DCEF11F0DEEF11F0E8EF11F0000E016E2E
:1023C000000E026E000E036E000E046E37EF13F067
:1023D000055001260650022207500322085004220D
:1023E00004A0F5EF11F0F7EF11F0A3EF12F010A039
:1023F000FCEF11F0FEEF11F004EF12F0D890103066
:102400000109106E06EF12F0D890103201A00BEF08
:1024100012F00DEF12F00EEF12F0108E04340432B1
:102420000332023201320F2AA3EF12F00550015C91
:1024300006500258075003580450800A096E08508D
:10244000800A0958D8B027EF12F029EF12F054EFA4
:1024500012F00150055C096E025006580A6E0350D6
:1024600007580B6E045008580C6EFF0E0924016EBD
:10247000FF0E0A20026EFF0E0B20036EFF0E0C20D3
:10248000046E800E0D1A106C1050D8A44AEF12F092
:102490004CEF12F05CEF12F0010E0126000E02224A
:1024A000032204225CEF12F00550015E0650025A2E
:1024B0000750035A0850045A015002100310041028
:1024C000D8A465EF12F067EF12F09CEF12F01050F5
:1024D000D8A46DEF12F06FEF12F09CEF12F0000E27
:1024E000016E000E026E000E036E000E046E37EFDA
:1024F00013F0D890013602360336043610AE83EF5F
:1025000012F085EF12F086EF12F0018010A08BEF31
:1025100012F08DEF12F091EF12F0D880103693EF99
:1025200012F0D89010360F50D8B499EF12F09BEFFC
:1025300012F09CEF12F00F0603AEA1EF12F0A3EF22
:1025400012F079EF12F0000E0E6E10AEAAEF12F03C
:10255000ACEF12F0C4EF12F010C009F07F0E0916B4
:10256000D8B4B5EF12F0B7EF12F0BBEF12F0010ED6
:102570000E6EC4EF12F001A0C0EF12F0C2EF12F025
:10258000C4EF12F0B7EF12F00E50D8B4CAEF12F049
:10259000CCEF12F0F7EF12F0010E0126000E02222E
:1025A0000322042204A0D7EF12F0D9EF12F0F7EFC4
:1025B00012F001C009F002C00AF003C00BF004C021
:1025C0000CF00C340C320B320A32093209C001F023
:1025D0000AC002F00BC003F00CC004F00F28D8B4FE
:1025E000F4EF12F0F6EF12F0F7EF12F00F2A0F28C7
:1025F000D8B4FDEF12F0FFEF12F007EF13F00F5019
:10260000D8A405EF13F007EF13F019EF13F0000E45
:10261000016E000E026E000E036E000E046E0F506F
:10262000D8A415EF13F017EF13F019EF13F0000E05
:102630000D6E0FA01EEF13F020EF13F023EF13F039
:10264000038E24EF13F0039ED8900F30046E0DAE6E
:102650002CEF13F02EEF13F02FEF13F0048E01C0C8
:1026600001F002C002F003C003F004C004F0120045
:102670001250800B1B6E12501224216E11AE43EFCC
:1026800013F045EF13F046EF13F021802150D8B43A
:102690004CEF13F04EEF13F061EF13F02128D8A4A4
:1026A00054EF13F056EF13F05EEF13F0000E0F6EC1
:1026B000000E106E000E116E000E126E118E69EF7C
:1026C00013F0000E0F6E000E106E000E116E000E55
:1026D000126E1650800B1B1A16501624206E15AE63
:1026E00074EF13F076EF13F077EF13F020802050A3
:1026F000D8B47DEF13F07FEF13F092EF13F02028A2
:10270000D8A485EF13F087EF13F08FEF13F0000ECE
:10271000136E000E146E000E156E000E166E158EE2
:102720009AEF13F0000E136E000E146E000E156E6D
:10273000000E166E2050D8B4A0EF13F0A2EF13F0E5
:10274000AAEF13F02150D8A4A8EF13F0AAEF13F0CA
:10275000B4EF13F0000E0F6E000E106E000E116E2F
:10276000000E126E4CEF15F015500F02F3CF26F04D
:10277000F4CF27F026501C6E1D6A1E6A1F6A275070
:10278000226E236A246A256A14501002F3CF26F0C1
:10279000F4CF27F026501C26000E1D221E221F22D9
:1027A00027502226000E2322242225221350110214
:1027B000F3CF26F0F4CF27F026501C26000E1D2262
:1027C0001E221F2227502226000E232224222522E9
:1027D0001EC01FF01DC01EF01CC01DF01C6A13504F
:1027E0001002F3CF26F0F4CF27F026501C262750F6
:1027F0001D22000E1E22000E1F2214500F02F3CFC6
:1028000026F0F4CF27F026501C2627501D22000E5C
:102810001E22000E1F221EC01FF01DC01EF01CC075
:102820001DF01C6A13500F02F3CF26F0F4CF27F0EF
:1028300026501C2627501D22000E1E22000E1F228D
:1028400015501002F3CF26F0F4CF27F026502226A1
:1028500027502322000E2422000E2522145011029C
:10286000F3CF26F0F4CF27F026502226275023223C
:10287000000E2422000E252215501102F3CF26F05F
:10288000F4CF27F02650176E2750186E196A1A6A6F
:1028900019C01AF018C019F017C018F0176A1750AD
:1028A000222618502322195024221A5025221CC0F7
:1028B00017F01DC018F01EC019F01FC01AF0190E35
:1028C00067EF14F0D8901A32193218321732E82E06
:1028D00062EF14F017502226185023221950242298
:1028E0001A5025221EC01FF01DC01EF01CC01DF076
:1028F0001C6A205021C017F0186A1726000E1822F3
:10290000820E1724266EFF0E1820276E9DEF14F0FE
:10291000D89022362336243625361FAE92EF14F097
:1029200094EF14F095EF14F02280D8901C361D36E9
:102930001E361F362606D8A0270624AEA2EF14F0B6
:10294000A4EF14F088EF14F0000E206E1FAEABEF72
:1029500014F0ADEF14F0D1EF14F0FF0E1C14176E4D
:10296000FF0E1D14186EFF0E1E14196E7F0E1F141D
:102970001A6E1750181019101A10D8B4C2EF14F0AC
:10298000C4EF14F0C8EF14F0010E206ED1EF14F074
:1029900022A0CDEF14F0CFEF14F0D1EF14F0C4EF7C
:1029A00014F02050D8B4D7EF14F0D9EF14F0FDEFA5
:1029B00014F0010E2226000E23222422252225A017
:1029C000E4EF14F0E6EF14F0FDEF14F022C017F07E
:1029D00023C018F024C019F025C01AF01A341A3296
:1029E00019321832173217C022F018C023F019C05C
:1029F00024F01AC025F0264A272A27BE08EF15F032
:102A0000275008E12628D8A008EF15F00AEF15F0A6
:102A100014EF15F0000E226E000E236E800E246E51
:102A20007F0E256E42EF15F027BE21EF15F02750DF
:102A300006E12604D8B01FEF15F021EF15F02DEFB9
:102A400015F0000E226E000E236E000E246E000E96
:102A5000256E000E1B6E42EF15F026C021F0FF0E12
:102A60002216FF0E23167F0E2416000E251621A017
:102A70003CEF15F03EEF15F03FEF15F0248ED890A7
:102A80002130256E1B50251222C00FF023C010F0FC
:102A900024C011F025C012F012002B50800B386EAC
:102AA0002B502B243F6E2AAE58EF15F05AEF15F03D
:102AB0005BEF15F03F803F50D8B461EF15F063EF46
:102AC00015F078EF15F03F28D8A469EF15F06BEFFB
:102AD00015F073EF15F0000E286E000E296E000E33
:102AE0002A6E000E2B6E2A8E000E2B6E80EF15F0D4
:102AF000000E286E000E296E000E2A6E000E2B6E40
:102B00002F50800B381A2F502F24406E2EAE8BEF93
:102B100015F08DEF15F08EEF15F040804050D8B4D1
:102B200094EF15F096EF15F0ABEF15F04028D8A410
:102B30009CEF15F09EEF15F0A6EF15F0000E2C6E31
:102B4000000E2D6E000E2E6E000E2F6E2E8E000EBD
:102B50002F6EB3EF15F0000E2C6E000E2D6E000ED2
:102B60002E6E000E2F6E2C502D102E102F10D8A46C
:102B7000BCEF15F0BEEF15F0D6EF15F0000E286E85
:102B8000000E296E000E2A6E000E2B6E800E2A1289
:102B90007F0E2B1238502B1228C028F029C029F0A4
:102BA0002AC02AF02BC02BF019EF17F03F50D8A401
:102BB000DCEF15F0DEEF15F0E8EF15F0000E286EF3
:102BC000000E296E000E2A6E000E2B6E19EF17F004
:102BD00040503FC030F0316A305E000E315A7F0EF7
:102BE0003024396E000E31203A6E28C034F029C0EE
:102BF00035F02AC036F02BC037F0000E286E000EDC
:102C0000296E000E2A6E000E2B6E000E3B6E000E1B
:102C10003C6E000E3D6E000E3E6E000E406E49EFA3
:102C200016F04050D8B417EF16F019EF16F030EF49
:102C300016F0D8903436353636363736D8902836B2
:102C400029362A362B363EAE28EF16F02AEF16F03C
:102C50002BEF16F02880D8903B363C363D363E367A
:102C60002C50345C2D5035582E5036582F50375834
:102C7000D8A03DEF16F03FEF16F048EF16F03E8C6F
:102C80002C50345E2D50355A2E50365A2F50375A0C
:102C9000402A190E40644FEF16F051EF16F011EF75
:102CA00016F03450351036103710D8B45AEF16F0ED
:102CB0005CEF16F074EF16F03B8074EF16F0D890CE
:102CC000283629362A362B363EAE69EF16F06BEFE2
:102CD00016F06CEF16F02880D8903B363C363D3627
:102CE0003E363906D8A03A062AAE79EF16F07BEFC9
:102CF00016F05FEF16F0000E406E3EAE82EF16F05B
:102D000084EF16F0A8EF16F0FF0E3B14306EFF0EA6
:102D10003C14316EFF0E3D14326E7F0E3E14336E46
:102D20003050311032103310D8B499EF16F09BEFB9
:102D300016F09FEF16F0010E406EA8EF16F028A0D7
:102D4000A4EF16F0A6EF16F0A8EF16F09BEF16F022
:102D50004050D8B4AEEF16F0B0EF16F0D4EF16F046
:102D6000010E2826000E29222A222B222BA0BBEF9F
:102D700016F0BDEF16F0D4EF16F028C030F029C0E1
:102D800031F02AC032F02BC033F0333433323232D8
:102D90003132303230C028F031C029F032C02AF050
:102DA00033C02BF0394A3A2A3ABEDFEF16F03A50D8
:102DB00008E13928D8A0DFEF16F0E1EF16F0ECEFCC
:102DC00016F0000E3A6E3968000E286E000E296E5D
:102DD000000E2A6E000E2B6E3ABEF9EF16F03A5036
:102DE00006E13904D8B0F7EF16F0F9EF16F007EF67
:102DF00017F0000E3A6E000E396E000E286E000EAF
:102E0000296E000E2A6E000E2B6E000E386E39C031
:102E10003FF03FA00EEF17F010EF17F013EF17F091
:102E20002A8E14EF17F02A9ED8903F302B6ECAEFEF
:102E300015F01200E3C051F0E4C052F0E5C053F0C9
:102E4000E6C054F041C051F042C052F043C053F0CC
:102E500044C054F0810E456EFF0E466E51C047F0DF
:102E600052C048F053C049F054C04AF0180E3EEF2B
:102E700017F0D8904A32493248324732E82E39EFBB
:102E800017F0475045244F6E000E4620506E50BE3E
:102E900053EF17F0505009E1170E4F5CD8A053EFD5
:102EA00017F055EF17F05FEF17F041C041F042C047
:102EB00042F043C043F044C044F022EF18F050BE4B
:102EC00064EF17F066EF17F0D6EF17F04FC045F03C
:102ED000FF0E466EFF0E476E7F0E486E000E496E67
:102EE000456675EF17F07DEF17F0493449324832E7
:102EF00047324632452E70EF17F046C04BF047C0C0
:102F00004CF048C04DF049C04EF04B505114456E46
:102F10004C505214466E4D505314476E4E5054143C
:102F2000486E4550461047104810D8A49AEF17F045
:102F30009CEF17F09EEF17F055EF17F051C045F0DA
:102F400052C046F053C047F054C048F0200EAEEFD8
:102F500017F0D8904832473246324532E82EA9EF72
:102F600017F04550461047104810D8B4BAEF17F084
:102F7000BCEF17F0C4EF17F04B5051264C505222C3
:102F80004D5053224E5054224B1C456E4C1C466EE5
:102F90004D1C476E4E1C486E4550511646505216F9
:102FA00047505316485054161AEF18F051C045F0C8
:102FB00052C046F053C047F054C048F0200EE6EF30
:102FC00017F0D8904832473246324532E82EE1EFCA
:102FD00017F04550461047104810D8A4F2EF17F0EC
:102FE000F4EF17F0FEEF17F0000E516E000E526E68
:102FF000000E536E000E546E1AEF18F0D890513434
:10300000456E5234466E5334476E5434486E4550C4
:10301000461047104810D8B410EF18F012EF18F00F
:103020001AEF18F0000E516E000E526E800E536EA5
:10303000BF0E546E51C041F052C042F053C043F035
:1030400054C044F01200096E0950D8B42AEF18F0A9
:103050002CEF18F04EEF18F004BE33EF18F031EFFC
:1030600018F04EEF18F001C005F002C006F003C0E2
:1030700007F004C008F0051E061E071E081E052ADC
:10308000000E06220722082205C00BF006C00CF035
:1030900007C00DF008C00EF056EF18F001C00BF09D
:1030A00002C00CF003C00DF004C00EF0015002107D
:1030B00003100410D8A45FEF18F061EF18F06BEF65
:1030C00018F0000E016E000E026E000E036E000E70
:1030D000046EFCEF18F0960E0A6E75EF18F00A2ACF
:1030E000D8900E320D320C320B32000E0B14056EDE
:1030F000000E0C14066E000E0D14076EFE0E0E145C
:10310000086E0550061007100810D8A48AEF18F0B2
:103110008CEF18F06FEF18F09AEF18F00A2A010EF2
:103120000B26000E0C220D220E22D8900E320D32EC
:103130000C320B32000E0B14056E000E0C14066ED2
:10314000000E0D14076EFF0E0E14086E05500610CB
:1031500007100810D8A4AFEF18F0B1EF18F08EEFF9
:1031600018F0B9EF18F00A06D8900B360C360D3669
:103170000E360DBEBEEF18F0C0EF18F0C8EF18F015
:10318000020E0A60C6EF18F0C8EF18F0B3EF18F09F
:103190000AB0CDEF18F0CFEF18F0D0EF18F00D9E79
:1031A000D8900A320AC005F0066A076A086A05C0A4
:1031B00008F0076A066A056A05500B1206500C12E1
:1031C00007500D1208500E120950D8B4EAEF18F04B
:1031D000ECEF18F0F4EF18F004BEF3EF18F0F1EF95
:1031E00018F0F4EF18F00E8E0BC001F00CC002F0D6
:1031F0000DC003F00EC004F01200000E116E000EA0
:10320000106E000E0F6E000E0E6E09EF19F0084AD8
:10321000092A08C0F6FF09C0F7FF000EF86E080083
:10322000F550200AD8B417EF19F019EF19F007EF8D
:1032300019F0F70E0A6EFF0E0B6E08C0F6FF09C0FC
:10324000F7FF000EF86E0800F5500C6E0D6A0A507C
:103250000C260B500D220D5009E1050E0C5CD8A078
:1032600034EF19F036EF19F007EF19F040EF19F0CD
:10327000000E0F6E010E0E6E084A092A79EF19F042
:1032800008C0F6FF09C0F7FF000EF86E0800F55001
:103290000A6E0B6A0B50000AD8B451EF19F079EF9F
:1032A00019F00A502B0AD8B43CEF19F0060AD8B42A
:1032B00038EF19F079EF19F010C001F011C002F0E9
:1032C000000E046E0A0E036E4DEC21F008C0F6FFEE
:1032D00009C0F7FF000EF86E0800F550015E000E01
:1032E000025A300E0124106E000E0220116E3CEFC7
:1032F00019F0D00E0A6EFF0E0B6E08C0F6FF09C063
:10330000F7FF000EF86E0800F5500C6E0D6A0A50BB
:103310000C260B500D220D5009E10A0E0C5CD8A0B2
:1033200094EF19F096EF19F05CEF19F00E500F10B2
:10333000D8A49DEF19F09FEF19F0ADEF19F010C070
:103340000AF011C00BF00A1E0B1E0A4A0B2A0AC013
:1033500008F00BC009F0B1EF19F010C008F011C06F
:1033600009F01200000E0001DF6F000EE06F200E6A
:10337000E16F400EE26FAAEC1FF09E9C9D9CF29CB8
:10338000010EC26E0E0EC16E890EC06EC282C2B236
:10339000CCEF19F0CEEF19F0C7EF19F0C350C4CF3E
:1033A000C2F00001C36BC2C0C3F0C26BC211DD6FBB
:1033B000C351DE6F000E136E000E146EA00E156E5C
:1033C000400E166EDDC001F0DEC002F0036A046A32
:1033D000000E23EC18F001C00FF002C010F003C083
:1033E00011F004C012F038EC13F00FC028F010C038
:1033F00029F011C02AF012C02BF0000E2C6E000E26
:103400002D6E800E2E6E440E2F6E4DEC15F028C0E2
:10341000DFF029C0E0F02AC0E1F02BC0E2F0C40EDA
:103420000001AD6F000EAE6F340EAF6F100EB06FB7
:10343000DFC0B1F0E0C0B2F0E1C0B3F0E2C0B4F080
:1034400009EC20F0000E096E000E7AEC21F0C40E9B
:10345000086E000E096E79EC1FF00D0E0001C36FAF
:10346000AF0EC26FB60EE82EFED7C22FFCD7C32F09
:10347000FAD700F0C6EF19F01200033404340A6ED4
:103480000A50D8A446EF1AF048EF1AF052EF1AF09B
:10349000000E016E000E026E000E036E000E046E32
:1034A000BFEF1AF001C005F002C006F003C007F03C
:1034B00004C008F0200E62EF1AF0D89008320732EC
:1034C00006320532E82E5DEF1AF00550096E038EC4
:1034D000FF0E0116FF0E0216FF0E0316000E041655
:1034E000960E0A5E0ABE79EF1AF077EF1AF08FEFA8
:1034F0001AF00A50800A970FD8B081EF1AF083EFC4
:103500001AF085EF1AF048EF1AF0D890043203321F
:10351000023201320A3E85EF1AF0A7EF1AF01F0EB1
:103520000A6495EF1AF097EF1AF09FEF1AF048EF40
:103530001AF0D89001360236033604360A060A50CD
:10354000D8A4A5EF1AF0A7EF1AF099EF1AF00950D6
:10355000D8B4ADEF1AF0AFEF1AF0B7EF1AF0041EBF
:10356000031E021E016C000E02220322042201C06F
:1035700001F002C002F003C003F004C004F0120026
:10358000000E2814306E000E2914316E800E2A149D
:10359000326E7F0E2B14336E3050311032103310D8
:1035A000D8A4D5EF1AF0D7EF1AF0DFEF1AF0000E1B
:1035B000286E000E296E000E2A6E000E2B6E000E75
:1035C0002C14306E000E2D14316E800E2E14326EBF
:1035D0007F0E2F14336E3050311032103310D8A4B8
:1035E000F4EF1AF0F6EF1AF0FEEF1AF0000E2C6E60
:1035F000000E2D6E000E2E6E000E2F6E2BAE03EF02
:103600001BF005EF1BF00EEF1BF0286C291ED8B045
:10361000292A2A1ED8B02A2A800E2B562FAE13EF45
:103620001BF015EF1BF01EEF1BF02C6C2D1ED8B0FD
:103630002D2A2E1ED8B02E2A800E2F56000E281AA4
:10364000000E291A000E2A1A800E2B1A000E2C1AB0
:10365000000E2D1A000E2E1A800E2F1A2C50285CE8
:103660002D5029582E502A582F502B58D8B03BEFA8
:103670001BF03DEF1BF040EF1BF0D89041EF1BF02B
:10368000D8801200E7C00BF0E8C00CF0E9C00DF0E4
:10369000EAC00EF001C00BF002C00CF003C00DF048
:1036A00004C00EF00BC005F00CC006F00DC007F012
:1036B0000EC008F0180E62EF1BF0D89008320732E7
:1036C00006320532E82E5DEF1BF00550096E0A6ADE
:1036D00009500A10D8A46FEF1BF071EF1BF091EFA7
:1036E0001BF0D8900B34056E0C34066E0D34076E4B
:1036F0000E34086E0550061007100810D8A483EF8A
:103700001BF085EF1BF08BEF1BF0000E026E020E1C
:10371000016EC0EF1BF0000E026E030E016EC0EFD3
:103720001BF009280A10D8A498EF1BF09AEF1BF0A1
:10373000BCEF1BF00BC005F00CC006F00DC007F08D
:103740000EC008F0090ED890053606360736083642
:10375000E82EA3EF1BF00550061007100810D8B490
:10376000B4EF1BF0B7EF1BF0010EB8EF1BF0000E2B
:10377000016E026AC0EF1BF0000E026E040E016EB5
:10378000120001C008F002C009F003C00AF004C032
:103790000BF00506D8A00606052806E10628D8A4E1
:1037A000D4EF1BF0D6EF1BF0E3EF1BF0000E026E20
:1037B000000E016E31EF1CF0084A092A0A4A0B2A52
:1037C0000506D8A0060608C0D9FF09C0DAFFDF50F9
:1037D000D8B4EDEF1BF0EFEF1BF01EEF1CF00AC0AA
:1037E000F6FF0BC0F7FF000EF86E0800F550000959
:1037F000D8B4FDEF1BF0FFEF1BF01EEF1CF00550DF
:103800000610D8B406EF1CF008EF1CF01EEF1CF0F9
:1038100008C0D9FF09C0DAFFDF50076E0AC0F6FF03
:103820000BC0F7FF000EF86E0800F5500718D8B46B
:103830001CEF1CF01EEF1CF0DCEF1BF008C0D9FFE2
:1038400009C0DAFFDF50076E0AC0F6FF0BC0F7FFB2
:10385000000EF86E0800F550075C016E026AD8A0F1
:103860000206120003500410D8B439EF1CF03BEFED
:103870001CF044EF1CF003500410D8A442EF1CF0DD
:1038800044EF1CF049EF1CF00150A1EC21F096EF41
:103890001CF020EE09F00350D9260450DA22DE5045
:1038A000DE10D8B456EF1CF058EF1CF073EF1CF08C
:1038B00020EE09F00350D9260450DA2210EE03F06E
:1038C0000350E1260450E222DE50E65CE650800A16
:1038D000096EDE50800A0958D8B071EF1CF073EF02
:1038E0001CF096EF1CF020EE03F00350D926045094
:1038F000DA22DECF05F0DDCF06F003C0D9FF04C029
:10390000DAFFDECF07F0DDCF08F005500724D96ECF
:1039100006500820DA6E01C0DFFF20EE03F00350EE
:10392000D9260450DA22DE2A000EDD221200000120
:10393000F1A19DEF1CF09FEF1CF0A9EF1CF013C04C
:103940000AF014C00BF011C00CF012C00DF0A1EC85
:1039500020F016BEAEEF1CF0B0EF1CF0B6EF1CF07E
:1039600015C01AF016C01BF0BAEF1CF0000E1B6E4B
:10397000000E1A6E000E196E000E186ECCEF1CF0C1
:10398000000E026E200E016E11C003F012C004F092
:1039900032EC1CF0184A192A1A50185C1950800A87
:1039A000176E1B50800A1758D8A0D9EF1CF0DBEF18
:1039B0001CF0C0EF1CF00001F1B1E1EF1CF0E3EFEF
:1039C0001CF0EDEF1CF013C00AF014C00BF011C096
:1039D0000CF012C00DF0A1EC20F013C001F014C0E7
:1039E00002F032EC21F01A500124116E1B5002201B
:1039F000126E1200000E066E04BE03EF1DF001EF02
:103A00001DF009EF1DF0036C041ED8B0042A010E4E
:103A1000066E02BE10EF1DF00EEF1DF016EF1DF04A
:103A2000016C021ED8B0022A010E061A000E086EA2
:103A3000000E076E03500410D8B421EF1DF023EFE1
:103A40001DF04BEF1DF0010E056E2BEF1DF0D89011
:103A500003360436052A04AE30EF1DF032EF1DF0B8
:103A600027EF1DF0D890073608360350015C04504C
:103A70000258D8A03EEF1DF040EF1DF045EF1DF0BD
:103A80000350015E0450025A0780D890043203327A
:103A9000052E32EF1DF00650D8B451EF1DF053EF54
:103AA0001DF057EF1DF0076C081ED8B0082A07C09C
:103AB00001F008C002F01200000E066E02BE65EFB3
:103AC0001DF063EF1DF06BEF1DF0016C021ED8B00E
:103AD000022A010E066E04BE72EF1DF070EF1DF09B
:103AE00076EF1DF0036C041ED8B0042A03500410B6
:103AF000D8B47DEF1DF07FEF1DF0A3EF1DF0010E98
:103B0000056E87EF1DF0D89003360436052A04AE03
:103B10008CEF1DF08EEF1DF083EF1DF00350015C64
:103B200004500258D8A097EF1DF099EF1DF09DEFBB
:103B30001DF00350015E0450025AD8900432033243
:103B4000052E8EEF1DF00650D8B4A9EF1DF0ABEF97
:103B50001DF0AFEF1DF0016C021ED8B0022A01C0AB
:103B600001F002C002F01200000E0114096E000EF6
:103B700002140A6E800E03140B6E7F0E04140C6E7A
:103B800009500A100B100C10D8A4C9EF1DF0CBEF90
:103B90001DF0D3EF1DF0000E016E000E026E000E40
:103BA000036E000E046E000E0514096E000E06145E
:103BB0000A6E800E07140B6E7F0E08140C6E0950EF
:103BC0000A100B100C10D8A4E8EF1DF0EAEF1DF05E
:103BD000F2EF1DF0000E056E000E066E000E076E71
:103BE000000E086E055001180FE1065002180CE196
:103BF0000750031809E108500418D8B402EF1EF06A
:103C000004EF1EF007EF1EF0D89008EF1EF0D880EA
:103C100012008DEC21F0AAEC1FF059EC1EF001C04F
:103C20000EF002C00FF00E50EC0F836E000E096E06
:103C3000010E7AEC21F035EF1EF0010E086E100E29
:103C4000096E79EC1FF04BEF1EF0120E086E100E8D
:103C5000096E79EC1FF04BEF1EF0230E086E100E6C
:103C6000096E79EC1FF04BEF1EF00EC00CF00FC088
:103C70000DF00D50000AD8B440EF1EF02DEF1EF0ED
:103C80000C50010AD8B41DEF1EF0030AD8B425EF7A
:103C90001EF02DEF1EF0020E0D6E450E0C6EAA0EDC
:103CA000E82EFED70C2EFCD70D2EFAD70DEF1EF006
:103CB00012000001F4BF66EF1EF0F45109E1280E76
:103CC000F35DD8A066EF1EF068EF1EF076EF1EF0F1
:103CD000F4BF74EF1EF0F45109E1140EF35DD8A0A7
:103CE00074EF1EF076EF1EF0A7EF1EF081A07BEFC1
:103CF0001EF07DEF1EF084EF1EF080BA82EF1EF002
:103D000084EF1EF0A3EF1EF0410E036EEE0EE82EC0
:103D1000FED7032EFCD700D081B091EF1EF093EFB9
:103D20001EF098EF1EF00001F34BF42BA3EF1EF0F2
:103D300080BA9DEF1EF09FEF1EF0A3EF1EF0000172
:103D4000F307D8A0F407F3C001F0F4C002F01200AA
:103D5000016E01C003F0000E026E01AEB2EF1EF064
:103D6000B4EF1EF0B7EF1EF08B8AB8EF1EF08B9AFF
:103D70008BA8BDEF1EF0BFEF1EF0C3EF1EF0D88082
:103D80000336C6EF1EF003500324036E8B8600F04B
:103D900000F000F000F000F000F000F000F000F0A3
:103DA00000F000F000F08B96D8900136022A070E42
:103DB0000264DDEF1EF0DFEF1EF0ADEF1EF012002B
:103DC000A7C0ABF0A8C0ACF0000E0001EC6F000E75
:103DD000EB6FFEEF1EF0A5C097F0A6C098F0AB0EFB
:103DE000996F000E9A6FA9C09BF0AAC09CF02FECAF
:103DF0000EF000019751EB279851EC23ABC0F6FF72
:103E0000ACC0F7FF000EF86E0800F5500009D8A40A
:103E10000CEF1FF00EEF1FF0EBEF1EF0EBC0A5F064
:103E2000ECC0A6F01200076E110E066E3A0EE82ED8
:103E3000FED7062EFCD700D0000E046E120E6DECDD
:103E400021F0040E066E3E0EE82EFED7062EFCD79D
:103E500007C004F0130E6DEC21F0040E066E3E0E4A
:103E6000E82EFED7062EFCD7400E046E120E6DEC27
:103E700021F0040E066E3E0EE82EFED7062EFCD76D
:103E8000000E046E120E6DEC21F01200076E110E82
:103E9000066E3A0EE82EFED7062EFCD700D0800E16
:103EA000046E120E6DEC21F0040E066E3E0EE82E2E
:103EB000FED7062EFCD707C004F0130E6DEC21F0E0
:103EC000040E066E3E0EE82EFED7062EFCD7C00E60
:103ED000046E120E6DEC21F0040E066E3E0EE82EFE
:103EE000FED7062EFCD7000E046E120E6DEC21F0EC
:103EF000120090EF1FF008C0F6FF09C0F7FF000E98
:103F0000F86E0F0EF76403D00800F55005D0F6CF19
:103F1000E1FFF7CFE2FFE75046EC1FF0084A092A1D
:103F200008C0F6FF09C0F7FF000EF86E0F0EF76429
:103F300003D00800F55005D0F6CFE1FFF7CFE2FF40
:103F4000E7500009D8A4A7EF1FF0A9EF1FF07BEFFF
:103F50001FF0120084EC21F0979C8E9C110E086ECD
:103F60003A0EE82EFED7082EFCD700D08E8C000E1D
:103F700060EC21F0010E60EC21F0000E046E120ED8
:103F80006DEC21F0310E086EB20EE82EFED7082E31
:103F9000FCD700D0320E13EC1FF03C0E13EC1FF0D8
:103FA0000C0E13EC1FF0010E13EC1FF0060E13ECB9
:103FB0001FF0120003C007F004C008F001C009F0B0
:103FC00002C00AF00750056E0850066E074A082A1C
:103FD00005C0F6FF06C0F7FF000EF86E09C0D9FF56
:103FE0000AC0DAFF094A0A2A0F0EF76403D0080054
:103FF000F55005D0F6CFE1FFF7CFE2FFE750DF6ED7
:10400000DF50D8A406EF20F008EF20F0E2EF1FF019
:104010001200B10E0001B56F000EB66FADC0B7F063
:10402000AEC0B8F0000EBB6F000EBA6F000EC16FCD
:10403000000EC06FB70EA56F000EA66FAFC0A7F041
:10404000B0C0A8F0B50EA96F000EAA6FE0EC1EF08C
:104050000001BA51AD25D96EBB51AE21DA6E000E0A
:10406000DF6E1200010E076E200E01180210D8B488
:104070003CEF20F03EEF20F057EF20F0F70E036EFC
:10408000FF0E046E01C005F002C006F003500526C5
:1040900004500622065009E1050E055CD8A053EF36
:1040A00020F055EF20F057EF20F0000E076E07C00C
:1040B00001F0026A1200BF0E096EFF0E0A6E07C001
:1040C0000BF008C00CF009500B260A500C220C50C3
:1040D00007E11A0E0B5CD8B070EF20F072EF20F001
:1040E00079EF20F0200E0710076E0850086E7DEF64
:1040F00020F007C007F008C008F01200000E2C1ACC
:10410000000E2D1A000E2E1A800E2F1A28C001F054
:1041100029C002F02AC003F02BC004F02CC005F027
:104120002DC006F02EC007F02FC008F0D8EC10F01C
:1041300001C028F002C029F003C02AF004C02BF00F
:104140001200000E106E000E0F6EB2EF20F00EC0C7
:1041500001F0026A0CC003F00DC004F032EC1CF058
:104160000F4A102A0F500A24D96E10500B20DA6E15
:10417000DF500E6E0E50D8A4C0EF20F0C2EF20F03A
:10418000A7EF20F01200BF0E036EFF0E046E01C0F9
:1041900005F002C006F00350052604500622065022
:1041A0000AE11A0E055CD8A0D8EF20F0DBEF20F072
:1041B000010EDCEF20F0000E016E026A12000150C9
:1041C000021003100410D8B4E8EF20F0EAEF20F05A
:1041D000F2EF20F0000E011A000E021A000E031A70
:1041E000800E041A01C001F002C002F003C003F007
:1041F00004C004F01200D00E036EFF0E046E01C066
:1042000005F002C006F003500526045006220650B1
:104210000AE10A0E055CD8A010EF21F013EF21F09F
:10422000010E14EF21F0000E016E026A1200400E22
:10423000F66E430EF76E000EF86E0900F5CFF3F040
:104240000900F5CFF4F001EE00F0500EEE6AE8063A
:10425000FDE100EEE3F0100EEE6AE806FDE100017C
:1042600094EF21F001C003F002C004F03AEF21F016
:10427000014A022A01C0D9FF02C0DAFFDF50D8A4E8
:1042800044EF21F046EF21F038EF21F00350015CBC
:10429000016E04500258026E120001500302F3CF67
:1042A00005F0F4CF06F001500402F3500626025048
:1042B0000302F350062605C001F006C002F012000A
:1042C000046E8994400EA8EC1EF00450A8EC1EF079
:1042D000000EA8EC1EF089841200056E8994400E31
:1042E000A8EC1EF00550A8EC1EF00450A8EC1EF03F
:1042F000898412000A6E0A50400DF35009240B6E97
:104300000B509AEC21F0120092949488949A94960F
:1043100089848B888B9A8B961200000E956E938001
:10432000928A0E0EC16E120009EC1EF0B2EC19F06A
:1043300000EF00F0086E0850800F13EC1FF0120021
:044340001400120053
:020000040020DA
:08000000FFFFFFFFFFFFFFFF00
:020000040030CA
:0E000000FF021F1EF38381FFFFC0FFE0FF40E1
:00000001FF
